{
  "contractName": "VaultFixed",
  "abi": [
    {
      "inputs": [
        {
          "internalType": "address",
          "name": "",
          "type": "address"
        }
      ],
      "name": "balances",
      "outputs": [
        {
          "internalType": "uint256",
          "name": "",
          "type": "uint256"
        }
      ],
      "stateMutability": "view",
      "type": "function"
    },
    {
      "inputs": [],
      "name": "store",
      "outputs": [],
      "stateMutability": "payable",
      "type": "function"
    },
    {
      "inputs": [],
      "name": "redeem",
      "outputs": [],
      "stateMutability": "nonpayable",
      "type": "function"
    }
  ],
  "bytecode": "0x608060405234801561001057600080fd5b506103be806100206000396000f3fe6080604052600436106100345760003560e01c806327e235e314610039578063975057e714610076578063be040fb014610080575b600080fd5b34801561004557600080fd5b50610060600480360381019061005b919061025c565b610097565b60405161006d91906102a2565b60405180910390f35b61007e6100af565b005b34801561008c57600080fd5b50610095610106565b005b60006020528060005260406000206000915090505481565b346000803373ffffffffffffffffffffffffffffffffffffffff1673ffffffffffffffffffffffffffffffffffffffff16815260200190815260200160002060008282546100fd91906102ec565b92505081905550565b60008060003373ffffffffffffffffffffffffffffffffffffffff1673ffffffffffffffffffffffffffffffffffffffff16815260200190815260200160002054905060008060003373ffffffffffffffffffffffffffffffffffffffff1673ffffffffffffffffffffffffffffffffffffffff168152602001908152602001600020819055503373ffffffffffffffffffffffffffffffffffffffff16816040516101b190610373565b60006040518083038185875af1925050503d80600081146101ee576040519150601f19603f3d011682016040523d82523d6000602084013e6101f3565b606091505b50505050565b600080fd5b600073ffffffffffffffffffffffffffffffffffffffff82169050919050565b6000610229826101fe565b9050919050565b6102398161021e565b811461024457600080fd5b50565b60008135905061025681610230565b92915050565b600060208284031215610272576102716101f9565b5b600061028084828501610247565b91505092915050565b6000819050919050565b61029c81610289565b82525050565b60006020820190506102b76000830184610293565b92915050565b7f4e487b7100000000000000000000000000000000000000000000000000000000600052601160045260246000fd5b60006102f782610289565b915061030283610289565b9250827fffffffffffffffffffffffffffffffffffffffffffffffffffffffffffffffff03821115610337576103366102bd565b5b828201905092915050565b600081905092915050565b50565b600061035d600083610342565b91506103688261034d565b600082019050919050565b600061037e82610350565b915081905091905056fea26469706673582212209faccd2d5901c6f6b1f83f8e1b0d0908b1190b8e1044faf8004ae6fb93deb7cb64736f6c634300080d0033",
  "immutableReferences": {},
  "source": "// SPDX-License-Identifier: GPL-3.0\r\npragma solidity 0.8.13;\r\n\r\n// You can store ETH in this contract and redeem them.\r\ncontract VaultFixed {\r\n    mapping(address => uint) public balances;\r\n\r\n    /// @dev Store ETH in the contract.\r\n    function store() public payable {\r\n        balances[msg.sender]+=msg.value;\r\n    }\r\n    \r\n    /// @dev Redeem your ETH.\r\n    function redeem() public {\r\n        uint toSend = balances[msg.sender];\r\n        balances[msg.sender]=0;\r\n\t\tmsg.sender.call{ value: toSend }(\"\");\r\n    }\r\n}\r\n",
  "sourcePath": "C:\\Users\\youne\\OneDrive\\Documents\\Development\\Developpeur-Ethereum-Template\\5.Security\\contracts\\reentrency\\VaultFixed.sol",
  "compiler": {
    "name": "solc",
    "version": "0.8.13+commit.abaa5c0e.Emscripten.clang"
  },
  "schemaVersion": "3.4.3",
  "updatedAt": "2022-04-12T16:42:22.580Z",
  "devdoc": {
    "kind": "dev",
    "methods": {
      "redeem()": {
        "details": "Redeem your ETH."
      },
      "store()": {
        "details": "Store ETH in the contract."
      }
    },
    "version": 1
  },
  "userdoc": {
    "kind": "user",
    "methods": {},
    "version": 1
  }
}